:100000000C9463000C948B000C948B000C948B006C
:100010000C948B000C948B000C948B000C948B0034
:100020000C948B000C948B000C948B000C948B0024
:100030000C948B000C948B000C948B000C948B0014
:100040000C94D7020C948B000C94AD050C94DF0536
:100050000C948B000C948B000C948B000C948B00F4
:100060000C948B000C948B0000000008000201002F
:100070000003040700000000000000000102040863
:100080001020408001020408102001020408102002
:10009000040404040404040402020202020203032E
:1000A00003030303000000002300260029000000D2
:1000B0000000250028002B0000000000240027007D
:1000C0002A00EA000F0611241FBECFEFD8E0DEBFE2
:1000D000CDBF11E0A0E0B1E0E4E6F1E102C005909F
:1000E0000D92A432B107D9F722E0A4E2B1E001C039
:1000F0001D92A432B207E1F710E0C6ECD0E004C0D4
:100100002297FE010E94AC08C23CD107C9F70E94A9
:1001100053060C94B0080C9400004FEF5FEFBA0147
:1001200080E691E00E94740126E040E855E260E03C
:1001300070E087E891E00C944B058F929F92AF920C
:10014000BF92CF92DF92EF92FF920E9421034B0168
:100150005C016EE180E691E00E9432026EE182E491
:1001600091E00E9432026B017C016EE184E291E039
:100170000E9432020E942103AB01BC0148195909B7
:100180006A097B092AE030E087E891E00E9458077D
:1001900060E071E087E891E00E94A00660E071E015
:1001A00087E891E00E94A0062AE030E0B701A601AE
:1001B00087E891E00E94460764E670E080E090E006
:1001C000FF90EF90DF90CF90BF90AF909F908F9077
:1001D0000C94500342E064E080E691E00E94FC0051
:1001E00046E064E082E491E00E94FC0048E064E0C4
:1001F00084E291E00C94FC00EF92FF920F931F9326
:10020000CF93DF93EC01E62EF42E21E030E039832A
:10021000288326E331E03F832E8300EE15E729E0B3
:1002200030E0088719872A873B8700E21EE420E038
:1002300030E00C871D872E873F8783E1861720F4E7
:100240002FEF3FEF3983288383E18F1520F42FEFC1
:100250003FEF3983288361E08E2D0E94F90360E02F
:100260008F2D0E94F90360E08E2D0E9432046E2DC6
:1002700070E0FB01E458FF4FE491E88FFB01E05789
:10028000FF4FE491F0E0EE0FFF1FEC55FF4F25917B
:1002900034913A8F298F4F2D50E0FA01E458FF4FE7
:1002A000E491EB8FFA01E057FF4FE491F0E0EE0F9D
:1002B000FF1FEC55FF4F859194919D8F8C8F4FEFD1
:1002C0005FEF6FEF7FE04A835B836C837D830E94E7
:1002D0002103688B798B8A8B9B8BDF91CF911F9148
:1002E0000F91FF90EF900895FC0144875587668732
:1002F00077870895CF93DF93EC01F894E98DFA8D19
:100300009281888D809589238283EC8DFD8D9181EA
:100310008B8D809589238183EC8DFD8D92818B8DD2
:10032000809589238283EC8DFD8D81819B8D892B26
:100330008183EC8DFD8D92818B8D809589238283C5
:100340008AE090E00E948A03EC8DFD8D91818B8D77
:10035000809589238183EC8DFD8D92818B8D809595
:1003600089238283E98DFA8D8281988D892B8283FE
:100370007894EC8DFD8D3B8D208123234C895D8904
:100380006E897F8988859985AA85BB85211106C0DC
:10039000481759076A077B0708F447C08417950771
:1003A000A607B70708F43EC0F894EC8DFD8D828156
:1003B0009B8D892B8283EC8DFD8D81819B8D892B7B
:1003C0008183EC8DFD8D82819B8D892B8283EC8DC9
:1003D000FD8D91818B8D809589238183EC8DFD8DA1
:1003E00092818B8D809589238283E98DFA8D92810C
:1003F000888D8095892382837894EC8DFD8D3B8D4B
:10040000208123234C895D896E897F898885998520
:10041000AA85BB85222391F0481759076A077B07F5
:10042000A8F00CC08EEF9FEF1AC04F5F5F4F6F4F69
:100430007F4F4C8B5D8B6E8B7F8B9ECF4817590700
:100440006A077B0778F781E090E009C04F5F5F4F54
:100450006F4F7F4F4C8B5D8B6E8B7F8BD1CFDF913E
:10046000CF910895CF92DF92EF92FF920F931F9357
:10047000CF93DF931F92CDB7DEB78C01FC01148AB6
:10048000158A168A178A662341F08081918197FF29
:1004900008C06FEF7FEFCB0180C060E070E0CB0160
:1004A0007CC0F12CC80169830E947A01698197FDA3
:1004B0005EC0F394F612F6CF0E942103F801C088C3
:1004C000D188E288F3886C197D098E099F09C4845C
:1004D000D584E684F784C616D706E806F90648F5FB
:1004E000C488D588E688F788628173818481958184
:1004F000C616D706E806F90629F0C61AD70AE80A8A
:10050000F90A03C0C12CD12C76010E9497072DEC6B
:100510003CEC4CEC5DE30E9425080E946607AB01B1
:10052000662757FD6095762FC416D506E606F706B2
:1005300018F1F80184899589A689B789C280D3808A
:10054000E480F5808C159D05AE05BF0520F48283FF
:100550009383A483B583F801C280D380E480F580BF
:10056000BC01CD016C197D098E099F0916C06EEF83
:100570007FEF8FEF9FEF11C04FEF5FEF6FEF7FE0E7
:10058000F80142835383648375830E942103F80139
:10059000608B718B828B938BCCCF0F90DF91CF913F
:1005A0001F910F91FF90EF90DF90CF9008951F92D1
:1005B0000F920FB60F9211242F933F938F939F9317
:1005C000AF93BF9380917F0190918001A0918101B1
:1005D000B091820130917E0123E0230F2D3720F46A
:1005E0000196A11DB11D05C026E8230F0296A11D8D
:1005F000B11D20937E0180937F0190938001A09391
:100600008101B09382018091830190918401A09136
:100610008501B09186010196A11DB11D80938301D2
:1006200090938401A0938501B0938601BF91AF910F
:100630009F918F913F912F910F900FBE0F901F9020
:1006400018952FB7F89460917F0170918001809187
:100650008101909182012FBF08953FB7F894809156
:10066000830190918401A0918501B091860126B506
:10067000A89B05C02F3F19F00196A11DB11D3FBFDA
:100680006627782F892F9A2F620F711D811D911D6A
:1006900042E0660F771F881F991F4A95D1F708958A
:1006A0008F929F92AF92BF92CF92DF92EF92FF9282
:1006B0006B017C010E942D034B015C01C114D1042C
:1006C000E104F104F1F00E9465070E942D0368190E
:1006D00079098A099B09683E73408105910570F389
:1006E00021E0C21AD108E108F10888EE880E83E003
:1006F000981EA11CB11CC114D104E104F10429F716
:10070000DDCFFF90EF90DF90CF90BF90AF909F90A4
:100710008F9008958230910538F0880F991F880FC7
:10072000991F05970197F1F70895789484B5826031
:1007300084BD84B5816084BD85B5826085BD85B585
:10074000816085BDEEE6F0E0808181608083E1E834
:10075000F0E010828081826080838081816080836C
:10076000E0E8F0E0808181608083E1EBF0E080816F
:1007700084608083E0EBF0E0808181608083EAE741
:10078000F0E08081846080838081826080838081CA
:10079000816080838081806880831092C100089589
:1007A000833081F028F4813099F08230A1F00895EF
:1007B0008730A9F08830B9F08430D1F4809180007E
:1007C0008F7D03C0809180008F7780938000089593
:1007D00084B58F7702C084B58F7D84BD08958091E4
:1007E000B0008F7703C08091B0008F7D8093B00000
:1007F0000895CF93DF9390E0FC01E458FF4F2491DC
:10080000FC01E057FF4F8491882349F190E0880F65
:10081000991FFC01E854FF4FA591B49182559F4F59
:10082000FC01C591D4919FB7611108C0F8948C91D7
:10083000209582238C93888182230AC0623051F4F0
:10084000F8948C91322F309583238C938881822B5E
:10085000888304C0F8948C91822B8C939FBFDF9186
:10086000CF9108950F931F93CF93DF931F92CDB72E
:10087000DEB7282F30E0F901E859FF4F8491F901E4
:10088000E458FF4F1491F901E057FF4F0491002302
:10089000C9F0882321F069830E94D0036981E02F89
:1008A000F0E0EE0FFF1FE255FF4FA591B4919FB707
:1008B000F8948C91611103C01095812301C0812BA4
:1008C0008C939FBF0F90DF91CF911F910F9108954F
:1008D000FC01818D228D90E0805C9F4F821B9109ED
:1008E0008F7399270895FC01918D828D981731F0AF
:1008F000828DE80FF11D858D90E008958FEF9FEFB9
:100900000895FC01918D828D981761F0828DDF0131
:10091000A80FB11D5D968C91928D9F5F9F73928FF2
:1009200090E008958FEF9FEF089585E096E0892B82
:1009300049F080E090E0892B29F00E9405068111A2
:100940000C9400000895FC01848DDF01A80FB11DF7
:10095000A35ABF4F2C91848D90E001968F739927F5
:10096000848FA689B7892C93A089B1898C918064E2
:100970008C93938D848D981306C00288F389E02DA3
:1009800080818F7D80830895CF93DF93EC01888DE4
:100990008823C9F0EA89FB89808185FD05C0A88983
:1009A000B9898C9186FD0FC00FB607FCF5CF808109
:1009B00085FFF2CFA889B9898C9185FFEDCFCE0153
:1009C0000E94A304E7CFDF91CF910895CF92DF92E9
:1009D000FF920F931F93CF93DF931F92CDB7DEB794
:1009E0006C0181E0D60158968C9358975B969C9148
:1009F0005B975C968C915C97981307C05096ED912D
:100A0000FC915197808185FD2EC0F601038D10E089
:100A10000F5F1F4F0F731127F02EF601848DF81210
:100A200011C00FB607FCF9CFD6015096ED91FC919D
:100A30005197808185FFF1CFC60169830E94A3048D
:100A40006981EBCF838DE80FF11DE35AFF4F60837F
:100A5000D6015B960C935B975296ED91FC91539760
:100A6000808180620CC0D6015696ED91FC9157971B
:100A700060835096ED91FC915197808180648083D2
:100A800081E090E00F90DF91CF911F910F91FF9047
:100A9000DF90CF900895BF92CF92DF92EF92FF92B6
:100AA000CF93DF93EC016A017B01B22EE889F989CB
:100AB00082E08083411581EE580761057105A1F040
:100AC00060E079E08DE390E0A70196010E9488083C
:100AD0002150310941095109569547953795279578
:100AE000211580E1380798F0E889F989108260E8DB
:100AF00074E88EE190E0A70196010E9488082150D9
:100B00003109410951095695479537952795EC8547
:100B1000FD853083EE85FF852083188EEC89FD8965
:100B2000B082EA89FB89808180618083EA89FB89C0
:100B3000808188608083EA89FB89808180688083E6
:100B4000EA89FB8980818F7D8083DF91CF91FF903F
:100B5000EF90DF90CF90BF9008951F920F920FB645
:100B60000F9211242F938F939F93EF93FF93E09114
:100B70009701F09198018081E0919D01F0919E0193
:100B800082FD12C090818091A0018F5F8F732091B0
:100B9000A101821751F0E091A001F0E0E957FE4F6A
:100BA000958F8093A00101C08081FF91EF919F916B
:100BB0008F912F910F900FBE0F901F9018951F923D
:100BC0000F920FB60F9211242F933F934F935F9381
:100BD0006F937F938F939F93AF93BF93EF93FF9305
:100BE00087E891E00E94A304FF91EF91BF91AF913C
:100BF0009F918F917F916F915F914F913F912F9135
:100C00000F900FBE0F901F90189587E891E00E94FB
:100C1000680421E0892B09F420E0822F08951092C6
:100C20008A011092890188EE93E0A0E0B0E0809301
:100C30008B0190938C01A0938D01B0938E0186E07F
:100C400091E0909388018093870185EC90E09093E8
:100C500094018093930184EC90E0909396018093AB
:100C6000950180EC90E0909398018093970181EC3E
:100C700090E090939A018093990182EC90E0909398
:100C80009C0180939B0186EC90E090939E01809361
:100C90009D011092A0011092A1011092A201109248
:100CA000A301089508950E9495030E9452060E9490
:100CB0008D00C5E9D4E00E949D002097E1F30E94D9
:100CC0009504F9CFCF92DF92EF92FF920F931F938B
:100CD000CF93DF937C016A01EB0100E010E00C157B
:100CE0001D0571F06991D701ED91FC910190F081A2
:100CF000E02DC7010995892B19F00F5F1F4FEFCF2A
:100D0000C801DF91CF911F910F91FF90EF90DF907D
:100D1000CF9008956115710581F0DB010D900020E1
:100D2000E9F7AD0141505109461B570BDC01ED912C
:100D3000FC910280F381E02D099480E090E0089519
:100D40000C948A06DC01ED91FC910190F081E02D7C
:100D5000099462E171E00C948A068F929F92AF929F
:100D6000BF92DF92EF92FF920F931F93CF93DF9387
:100D7000CDB7DEB7A1970FB6F894DEBF0FBECDBFDB
:100D80007C01F42FD52ECB0119A2223008F42AE0E1
:100D90008E010F5D1F4F822E912CA12CB12C6F2F35
:100DA0007D2DA50194010E948808F22FD32ECA013F
:100DB000015011096A3014F4E0E301C0E7E3E60FE3
:100DC000D801EC93232B242B252B49F7B801C7011D
:100DD0000E948A06A1960FB6F894DEBF0FBECDBF63
:100DE000DF91CF911F910F91FF90EF90DF90BF9017
:100DF000AF909F908F900895CF92DF92EF92FF92E5
:100E00000F931F93CF93DF93EC016A017B012115B0
:100E1000310579F4E881F9810190F081E02D642FAA
:100E2000DF91CF911F910F91FF90EF90DF90CF90C6
:100E300009942A303105E9F477FF1AC06DE20E9467
:100E4000A2068C0144275527BA014C195D096E0989
:100E50007F092AE0CE010E94AD06800F911FDF912D
:100E6000CF911F910F91FF90EF90DF90CF90089559
:100E70002AE0B701A601CE01DF91CF911F910F911A
:100E8000FF90EF90DF90CF900C94AD060F931F93DF
:100E9000CF93DF93EC010E94FC068C01CE010E94EF
:100EA000A906800F911FDF91CF911F910F91089597
:100EB0002115310541F4DC01ED91FC910190F081A7
:100EC000E02D642F09940C94AD06089504D0689425
:100ED000B111B5C0089598D088F09F5790F0B92F00
:100EE0009927B751A0F0D1F0660F771F881F991F7F
:100EF0001AF0BA95C9F712C0B13081F09FD0B1E0B5
:100F000008959CC0672F782F8827B85F39F0B93FC4
:100F1000CCF3869577956795B395D9F73EF4909580
:100F20008095709561957F4F8F4F9F4F0895E894FE
:100F300009C097FB3EF490958095709561957F4F21
:100F40008F4F9F4F9923A9F0F92F96E9BB279395CF
:100F5000F695879577956795B795F111F8CFFAF4DF
:100F6000BB0F11F460FF1BC06F5F7F4F8F4F9F4F10
:100F700016C0882311F096E911C0772321F09EE86E
:100F8000872F762F05C0662371F096E8862F70E0D4
:100F900060E02AF09A95660F771F881FDAF7880FAE
:100FA0009695879597F9089597F99F6780E870E07F
:100FB00060E008959FEF80EC089500240A941616CF
:100FC000170618060906089500240A941216130637
:100FD000140605060895092E0394000C11F48823C5
:100FE00052F0BB0F40F4BF2B11F460FF04C06F5FE1
:100FF0007F4F8F4F9F4F089557FD9058440F551FB7
:1010000059F05F3F71F04795880F97FB991F61F08A
:101010009F3F79F087950895121613061406551F01
:10102000F2CF4695F1DF08C0161617061806991F6D
:10103000F1CF86957105610508940895E894BB2762
:1010400066277727CB0197F908950BD0C4CFB5DF7A
:1010500028F0BADF18F0952309F0A6CFABCF112402
:10106000EECFCADFA0F3959FD1F3950F50E0551F47
:10107000629FF001729FBB27F00DB11D639FAA27ED
:10108000F00DB11DAA1F649F6627B00DA11D661F3C
:10109000829F2227B00DA11D621F739FB00DA11D5D
:1010A000621F839FA00D611D221F749F3327A00D17
:1010B000611D231F849F600D211D822F762F6A2FB3
:1010C00011249F5750408AF0E1F088234AF0EE0F38
:1010D000FF1FBB1F661F771F881F91505040A9F745
:1010E0009E3F510570F060CFAACF5F3FECF3983E72
:1010F000DCF3869577956795B795F795E7959F5FAC
:10110000C1F7FE2B880F911D9695879597F9089545
:10111000A1E21A2EAA1BBB1BFD010DC0AA1FBB1FFB
:10112000EE1FFF1FA217B307E407F50720F0A21B6D
:10113000B30BE40BF50B661F771F881F991F1A94DA
:1011400069F760957095809590959B01AC01BD0104
:10115000CF010895EE0FFF1F0590F491E02D099443
:04116000F894FFCF31
:10116400090000000000E6046206680481047304B8
:10117400C4040D0A006E616E00696E66006F7666C7
:04118400002E000039
:00000001FF
