:100000000C9463000C948B000C948B000C948B006C
:100010000C948B000C948B000C948B000C948B0034
:100020000C948B000C948B000C948B000C948B0024
:100030000C948B000C948B000C948B000C948B0014
:100040000C9482040C948B000C9458070C948A072F
:100050000C948B000C948B000C948B000C948B00F4
:100060000C948B000C948B0000000008000201002F
:100070000003040700000000000000000102040863
:100080001020408001020408102001020408102002
:10009000040404040404040402020202020203032E
:1000A00003030303000000002300260029000000D2
:1000B0000000250028002B0000000000240027007D
:1000C0002A00CF01BA0711241FBECFEFD8E0DEBF50
:1000D000CDBF11E0A0E0B1E0E8ECF4E102C0059092
:1000E0000D92AE39B107D9F722E0AEE9B1E001C017
:1000F0001D92AD3DB207E1F710E0C6ECD0E004C0C0
:100100002297FE010E945E0AC23CD107C9F70E94F5
:10011000FE070C94620A0C94000040ED57E060E08A
:1001200070E080E092E00E94E90320E835E240E0E0
:1001300050E060E472E080E092E00E94FC0380E026
:1001400092E00E94E60360E071E0809131029091BC
:1001500032020E944B086AE070E080E090E00E946A
:10016000FB0441E060E080E092E00E9467044FEF12
:100170005FEFBA018AED91E00E94590226E040E863
:1001800055E260E070E080E492E00C94F6064F9255
:100190005F926F927F928F929F92AF92BF92CF9217
:1001A000DF92EF92FF92CF93DF9300D000D0CDB7D4
:1001B000DEB70E94CC04672B682B692B41F40E94A8
:1001C000CC04623071058105910508F479C080E0A6
:1001D00092E00E94BC036093F8017093F901809350
:1001E000FA019093FB01C090FC01D090FD01E090DA
:1001F000FE01F090FF016C157D058E059F0540F412
:100200006093FC017093FD018093FE019093FF01C8
:10021000C090FC01D090FD01E090FE01F090FF0144
:100220009B01AC012C193D094E095F0969017A0156
:100230003AEFC316D104E104F10408F441C060931D
:10024000FC017093FD018093FE019093FF0180E01B
:1002500092E00E94E60362E171E0809131029091A8
:1002600032020E944B086AE171E080913102909164
:1002700032020E944B080E94CC04AB01BC012AE070
:1002800030E080913102909132020E9403096CE1CA
:1002900071E080913102909132020E944B0865E03A
:1002A00070E080E090E00E94FB046AE070E080E093
:1002B00090E00E94FB0461E080E092E00E9429044B
:1002C0000E94CC0469837A838B839C836EE18AEDE0
:1002D00091E00E9417032B013C016EE18CEB91E051
:1002E0000E9417034B015C016EE18EE991E00E94D0
:1002F00017036B017C010E94CC04AB01BC01898116
:100300009A81AB81BC81481B590B6A0B7B0B2AE09D
:1003100030E080E492E00E94030965E271E080E44D
:1003200092E00E944B082AE030E0B301A20180E491
:1003300092E00E94A70865E271E080E492E00E94EA
:100340004B082AE030E0B501A40180E492E00E946D
:10035000A70865E271E080E492E00E944B082AE081
:1003600030E0B701A60180E492E00E94F1086AE063
:1003700070E080E090E00F900F900F900F90DF9171
:10038000CF91FF90EF90DF90CF90BF90AF909F9074
:100390008F907F906F905F904F900C94FB0442E0A1
:1003A00064E08AED91E00E94E10146E064E08CEBBC
:1003B00091E00E94E10148E064E08EE991E00C9454
:1003C000E101EF92FF920F931F93CF93DF93EC0124
:1003D000E62EF42E21E030E03983288326E331E055
:1003E0003F832E8300EE15E729E030E00887198768
:1003F0002A873B8700E21EE420E030E00C871D875F
:100400002E873F8783E1861720F42FEF3FEF398354
:10041000288383E18F1520F42FEF3FEF3983288362
:1004200061E08E2D0E94A40560E08F2D0E94A4053E
:1004300060E08E2D0E94DD056E2D70E0FB01E4581A
:10044000FF4FE491E88FFB01E057FF4FE491F0E0AC
:10045000EE0FFF1FEC55FF4F259134913A8F298FF6
:100460004F2D50E0FA01E458FF4FE491EB8FFA0171
:10047000E057FF4FE491F0E0EE0FFF1FEC55FF4F08
:10048000859194919D8F8C8F4FEF5FEF6FEF7FE0A1
:100490004A835B836C837D830E94CC04688B798B59
:1004A0008A8B9B8BDF91CF911F910F91FF90EF90E3
:1004B0000895FC0144875587668777870895CF9311
:1004C000DF93EC01F894E98DFA8D9281888D809507
:1004D00089238283EC8DFD8D91818B8D809589237D
:1004E0008183EC8DFD8D92818B8D80958923828314
:1004F000EC8DFD8D81819B8D892B8183EC8DFD8D14
:1005000092818B8D8095892382838AE090E00E947E
:100510003505EC8DFD8D91818B8D809589238183AF
:10052000EC8DFD8D92818B8D809589238283E98D61
:10053000FA8D8281988D892B82837894EC8DFD8D44
:100540003B8D208123234C895D896E897F89888535
:100550009985AA85BB85211106C0481759076A07E6
:100560007B0708F447C084179507A607B70708F468
:100570003EC0F894EC8DFD8D82819B8D892B82830A
:10058000EC8DFD8D81819B8D892B8183EC8DFD8D83
:1005900082819B8D892B8283EC8DFD8D91818B8D4A
:1005A000809589238183EC8DFD8D92818B8D809543
:1005B00089238283E98DFA8D9281888D80958923A4
:1005C00082837894EC8DFD8D3B8D208123234C8993
:1005D0005D896E897F8988859985AA85BB85222357
:1005E00091F0481759076A077B07A8F00CC08EEFF7
:1005F0009FEF1AC04F5F5F4F6F4F7F4F4C8B5D8BEC
:100600006E8B7F8B9ECF481759076A077B0778F759
:1006100081E090E009C04F5F5F4F6F4F7F4F4C8B81
:100620005D8B6E8B7F8BD1CFDF91CF910895CF9271
:10063000DF92EF92FF920F931F93CF93DF931F925E
:10064000CDB7DEB78C01FC01148A158A168A178A89
:10065000662341F08081918197FF08C06FEF7FEFA3
:10066000CB0180C060E070E0CB017CC0F12CC80100
:1006700069830E945F02698197FD5EC0F394F61260
:10068000F6CF0E94CC04F801C088D188E288F388B4
:100690006C197D098E099F09C484D584E684F7848A
:1006A000C616D706E806F90648F5C488D588E68850
:1006B000F7886281738184819581C616D706E80622
:1006C000F90629F0C61AD70AE80AF90A03C0C12CAC
:1006D000D12C76010E9449092DEC3CEC4CEC5DE3F9
:1006E0000E94D7090E941809AB01662757FD609543
:1006F000762FC416D506E606F70618F1F8018489A8
:100700009589A689B789C280D380E480F5808C154D
:100710009D05AE05BF0520F482839383A483B58332
:10072000F801C280D380E480F580BC01CD016C1952
:100730007D098E099F0916C06EEF7FEF8FEF9FEF47
:1007400011C04FEF5FEF6FEF7FE0F80142835383FB
:10075000648375830E94CC04F801608B718B828B5B
:10076000938BCCCF0F90DF91CF911F910F91FF9082
:10077000EF90DF90CF9008950C94CC040F931F93CB
:10078000CF93DF93EC01662359F00E94CC04698378
:100790007A838B839C83DF91CF911F910F91089572
:1007A0000E94CC0409811A812B813C81601B710B52
:1007B000820B930B623371058105910530F763E07D
:1007C00070E080E090E00E94FB04EACF60E00C94CF
:1007D000BE03FC0113AA14AA15AA16AA118212823A
:1007E00013821482411551056105710521F0CB0179
:1007F000BA010C94FB040895FB01BA01A901DC01C4
:10080000D296FC93EE93D19726E0CF010C94F60696
:100810001F93CF93DF93EC01162F67E271E089A954
:100820009AA90E944B084AE050E0612F89A99AA931
:100830000E9410096EE271E089A99AA90E944B08F2
:1008400062E370E080E090E0DF91CF911F910C9423
:10085000FB041F93CF93DF93EC01162F8D81882328
:1008600089F189A99AA9DC01ED91FC910480F581B7
:10087000E02D0995892BA9F307C02637310519F119
:100880002835310509F41D8289A99AA9DC01ED9169
:10089000FC910480F581E02D09951816190694F451
:1008A00089A99AA9DC01ED91FC910680F781E02DE0
:1008B00009959C01332723363105F9F6612FCE01C6
:1008C0000E94080483E6DF91CF911F9108950F9352
:1008D0001F93CF93DF931F92CDB7DEB78C016623B2
:1008E00049F081E0F801858360E0C80149830E94F6
:1008F00029044981F80145830F90DF91CF911F9121
:100900000F9108951F920F920FB60F9211242F93FB
:100910003F938F939F93AF93BF93809138029091B1
:100920003902A0913A02B0913B023091370223E0A4
:10093000230F2D3720F40196A11DB11D05C026E817
:10094000230F0296A11DB11D209337028093380218
:1009500090933902A0933A02B0933B0280913C02FB
:1009600090913D02A0913E02B0913F020196A11DDF
:10097000B11D80933C0290933D02A0933E02B09340
:100980003F02BF91AF919F918F913F912F910F9017
:100990000FBE0F901F9018952FB7F89460913802F2
:1009A0007091390280913A0290913B022FBF0895D5
:1009B0003FB7F89480913C0290913D02A0913E0295
:1009C000B0913F0226B5A89B05C02F3F19F00196B4
:1009D000A11DB11D3FBF6627782F892F9A2F620F67
:1009E000711D811D911D42E0660F771F881F991FA1
:1009F0004A95D1F708958F929F92AF92BF92CF926E
:100A0000DF92EF92FF926B017C010E94D8044B01B0
:100A10005C01C114D104E104F104F1F00E94170952
:100A20000E94D804681979098A099B09683E7340B5
:100A30008105910570F321E0C21AD108E108F1089F
:100A400088EE880E83E0981EA11CB11CC114D1044D
:100A5000E104F10429F7DDCFFF90EF90DF90CF9014
:100A6000BF90AF909F908F9008958230910538F09D
:100A7000880F991F880F991F05970197F1F708951F
:100A8000789484B5826084BD84B5816084BD85B569
:100A9000826085BD85B5816085BDEEE6F0E0808130
:100AA00081608083E1E8F0E0108280818260808351
:100AB000808181608083E0E8F0E0808181608083D4
:100AC000E1EBF0E0808184608083E0EBF0E0808106
:100AD00081608083EAE7F0E08081846080838081A8
:100AE0008260808380818160808380818068808350
:100AF0001092C1000895833081F028F4813099F07C
:100B00008230A1F008958730A9F08830B9F08430A0
:100B1000D1F4809180008F7D03C0809180008F7719
:100B200080938000089584B58F7702C084B58F7D4F
:100B300084BD08958091B0008F7703C08091B0008C
:100B40008F7D8093B0000895CF93DF9390E0FC01F8
:100B5000E458FF4F2491FC01E057FF4F8491882314
:100B600049F190E0880F991FFC01E854FF4FA591CF
:100B7000B49182559F4FFC01C591D4919FB76111EB
:100B800008C0F8948C91209582238C9388818223CD
:100B90000AC0623051F4F8948C91322F309583233F
:100BA0008C938881822B888304C0F8948C91822B4B
:100BB0008C939FBFDF91CF9108950F931F93CF9395
:100BC000DF931F92CDB7DEB7282F30E0F901E85947
:100BD000FF4F8491F901E458FF4F1491F901E05758
:100BE000FF4F04910023C9F0882321F069830E94FC
:100BF0007B056981E02FF0E0EE0FFF1FE255FF4F0C
:100C0000A591B4919FB7F8948C91611103C0109590
:100C1000812301C0812B8C939FBF0F90DF91CF91D7
:100C20001F910F910895FC01818D228D90E0805CD1
:100C30009F4F821B91098F7399270895FC01918D15
:100C4000828D981731F0828DE80FF11D858D90E02F
:100C500008958FEF9FEF0895FC01918D828D981775
:100C600061F0828DDF01A80FB11D5D968C91928D90
:100C70009F5F9F73928F90E008958FEF9FEF08958D
:100C800080EB97E0892B49F080E090E0892B29F0F8
:100C90000E94B00781110C9400000895FC01848D1E
:100CA000DF01A80FB11DA35ABF4F2C91848D90E096
:100CB00001968F739927848FA689B7892C93A08971
:100CC000B1898C9180648C93938D848D981306C028
:100CD0000288F389E02D80818F7D80830895CF93F2
:100CE000DF93EC01888D8823C9F0EA89FB89808134
:100CF00085FD05C0A889B9898C9186FD0FC00FB606
:100D000007FCF5CF808185FFF2CFA889B9898C9146
:100D100085FFEDCFCE010E944E06E7CFDF91CF9148
:100D20000895CF92DF92FF920F931F93CF93DF939B
:100D30001F92CDB7DEB76C0181E0D60158968C9337
:100D400058975B969C915B975C968C915C979813F7
:100D500007C05096ED91FC915197808185FD2EC082
:100D6000F601038D10E00F5F1F4F0F731127F02E58
:100D7000F601848DF81211C00FB607FCF9CFD60129
:100D80005096ED91FC915197808185FFF1CFC6017E
:100D900069830E944E066981EBCF838DE80FF11DB8
:100DA000E35AFF4F6083D6015B960C935B97529694
:100DB000ED91FC915397808180620CC0D6015696CC
:100DC000ED91FC91579760835096ED91FC9151976E
:100DD00080818064808381E090E00F90DF91CF91EB
:100DE0001F910F91FF90DF90CF900895BF92CF9207
:100DF000DF92EF92FF92CF93DF93EC016A017B01C8
:100E0000B22EE889F98982E08083411581EE580786
:100E100061057105A1F060E079E08DE390E0A70144
:100E200096010E943A0A215031094109510956950B
:100E3000479537952795211580E1380798F0E8897F
:100E4000F989108260E874E88EE190E0A7019601CC
:100E50000E943A0A21503109410951095695479596
:100E600037952795EC85FD853083EE85FF852083BA
:100E7000188EEC89FD89B082EA89FB8980818061C6
:100E80008083EA89FB89808188608083EA89FB8985
:100E9000808180688083EA89FB8980818F7D80835F
:100EA000DF91CF91FF90EF90DF90CF90BF900895AA
:100EB0001F920F920FB60F9211242F938F939F932F
:100EC000EF93FF93E0915002F09151028081E09105
:100ED0005602F091570282FD12C090818091590212
:100EE0008F5F8F7320915A02821751F0E09159025F
:100EF000F0E0E05CFD4F958F8093590201C0808146
:100F0000FF91EF919F918F912F910F900FBE0F90B6
:100F10001F9018951F920F920FB60F9211242F93C6
:100F20003F934F935F936F937F938F939F93AF9371
:100F3000BF93EF93FF9380E492E00E944E06FF91EF
:100F4000EF91BF91AF919F918F917F916F915F9141
:100F50004F913F912F910F900FBE0F901F901895BA
:100F600080E492E00E94130621E0892B09F420E03E
:100F7000822F0895109243021092420288EE93E06D
:100F8000A0E0B0E08093440290934502A093460213
:100F9000B093470283E891E090934102809340022E
:100FA00085EC90E090934D0280934C0284EC90E0AD
:100FB00090934F0280934E0280EC90E09093510208
:100FC0008093500281EC90E0909353028093520200
:100FD00082EC90E0909355028093540286EC90E06E
:100FE00090935702809356021092590210925A021F
:100FF00010925B0210925C02089508950E944005D1
:101000000E94FD070E948D00C0E4D6E00E94C70048
:101010002097E1F30E944006F9CFCF92DF92EF9242
:10102000FF920F931F93CF93DF937C016A01EB0133
:1010300000E010E00C151D0571F06991D701ED91EC
:10104000FC910190F081E02DC7010995892B19F0E1
:101050000F5F1F4FEFCFC801DF91CF911F910F910D
:10106000FF90EF90DF90CF9008956115710581F0AA
:10107000DB010D900020E9F7AD0141505109461BFD
:10108000570BDC01ED91FC910280F381E02D099476
:1010900080E090E008950C943508DC01ED91FC911E
:1010A0000190F081E02D099464E371E00C9435081F
:1010B0008F929F92AF92BF92DF92EF92FF920F9327
:1010C0001F93CF93DF93CDB7DEB7A1970FB6F894F8
:1010D000DEBF0FBECDBF7C01F42FD52ECB0119A2F0
:1010E000223008F42AE08E010F5D1F4F822E912CD2
:1010F000A12CB12C6F2F7D2DA50194010E943A0ADD
:10110000F22FD32ECA01015011096A3014F4E0E322
:1011100001C0E7E3E60FD801EC93232B242B252B0A
:1011200049F7B801C7010E943508A1960FB6F89497
:10113000DEBF0FBECDBFDF91CF911F910F91FF900A
:10114000EF90DF90BF90AF909F908F900895CF92D7
:10115000DF92EF92FF920F931F93CF93DF93EC01F7
:101160006A017B012115310579F4E881F98101904B
:10117000F081E02D642FDF91CF911F910F91FF90AF
:10118000EF90DF90CF9009942A303105E9F477FF92
:101190001AC06DE20E944D088C0144275527BA0100
:1011A0004C195D096E097F092AE0CE010E9458089A
:1011B000800F911FDF91CF911F910F91FF90EF90C2
:1011C000DF90CF9008952AE0B701A601CE01DF910C
:1011D000CF911F910F91FF90EF90DF90CF900C94E3
:1011E00058080F931F93CF93DF93EC010E94A70839
:1011F0008C01CE010E945408800F911FDF91CF9186
:101200001F910F9108952115310541F4DC01ED91F5
:10121000FC910190F081E02D642F09940C94580802
:101220009A01462F50E060E070E00C9403090895A5
:1012300004D06894B111B5C0089598D088F09F5734
:1012400090F0B92F9927B751A0F0D1F0660F771F12
:10125000881F991F1AF0BA95C9F712C0B13081F0F2
:101260009FD0B1E008959CC0672F782F8827B85F82
:1012700039F0B93FCCF3869577956795B395D9F753
:101280003EF490958095709561957F4F8F4F9F4F5D
:101290000895E89409C097FB3EF490958095709569
:1012A00061957F4F8F4F9F4F9923A9F0F92F96E9B2
:1012B000BB279395F695879577956795B795F11127
:1012C000F8CFFAF4BB0F11F460FF1BC06F5F7F4FC4
:1012D0008F4F9F4F16C0882311F096E911C07723D6
:1012E00021F09EE8872F762F05C0662371F096E8DF
:1012F000862F70E060E02AF09A95660F771F881FAE
:10130000DAF7880F9695879597F9089597F99F676B
:1013100080E870E060E008959FEF80EC089500247D
:101320000A941616170618060906089500240A944A
:1013300012161306140605060895092E0394000CD0
:1013400011F4882352F0BB0F40F4BF2B11F460FF5F
:1013500004C06F5F7F4F8F4F9F4F089557FD905888
:10136000440F551F59F05F3F71F04795880F97FB69
:10137000991F61F09F3F79F0879508951216130623
:101380001406551FF2CF4695F1DF08C01616170652
:101390001806991FF1CF8695710561050894089587
:1013A000E894BB2766277727CB0197F908950BD0E0
:1013B000C4CFB5DF28F0BADF18F0952309F0A6CF27
:1013C000ABCF1124EECFCADFA0F3959FD1F3950FD9
:1013D00050E0551F629FF001729FBB27F00DB11DB9
:1013E000639FAA27F00DB11DAA1F649F6627B00D49
:1013F000A11D661F829F2227B00DA11D621F739F32
:10140000B00DA11D621F839FA00D611D221F749F3F
:101410003327A00D611D231F849F600D211D822F86
:10142000762F6A2F11249F5750408AF0E1F08823CD
:101430004AF0EE0FFF1FBB1F661F771F881F9150DA
:101440005040A9F79E3F510570F060CFAACF5F3F93
:10145000ECF3983EDCF3869577956795B795F7950D
:10146000E7959F5FC1F7FE2B880F911D9695879595
:1014700097F90895A1E21A2EAA1BBB1BFD010DC00E
:10148000AA1FBB1FEE1FFF1FA217B307E407F50734
:1014900020F0A21BB30BE40BF50B661F771F881F10
:1014A000991F1A9469F760957095809590959B01A6
:1014B000AC01BD01CF010895EE0FFF1F0590F4911F
:0814C000E02D0994F894FFCF20
:1014C800564D4450565F317C315F564D4450560D51
:1014D8000A00564D4450455F31007C005F564D442C
:1014E80050450D0A000900564D4450435F005F56B1
:1014F8004D4450430D0A004572726F723A20417490
:1015080074656D707420746F207365742061207227
:101518006561642D6F6E6C79207661726961626CA9
:1015280065206F7220646174612074797065206E23
:101538006F7420737570706F727465640D0A0000A3
:1015480000000091060D0813062C061E066F066E95
:0E155800616E00696E66006F7666002E000000
:00000001FF
